:020000040040BA
:10000000A83D00204D15400049154000491540000D
:100010004915400049154000491540000000000006
:100020000000000000000000000000004915400032
:1000300049154000000000004915400049154000E6
:100040004915400049154000491540004915400038
:100050004915400049154000491540004915400028
:10006000491540004915400000000000ED10400017
:1000700001114000151140004915400001084000E1
:100080000000000000000000491540004915400034
:1000900049154000491540004915400049154000E8
:1000A00049154000491540004915400049154000D8
:1000B00049154000491540004915400049154000C8
:1000C00049154000491540004915400010B5054C40
:1000D000237833B9044B13B10448AFF300800123F4
:1000E000237010BD8C0C0020000000004869400007
:1000F000084B10B51BB108490848AFF30080084809
:10010000036803B910BD074B002BFBD0BDE81040BE
:10011000184700BF00000000900C00204869400014
:10012000486940000000000008B5024B1B68984772
:1001300008BD00BFA80C002008B5024B1B68C0B268
:10014000984708BDAC0C002070B506460D46124B12
:1001500098470446F0B1114B1E60114B1D601148C9
:10016000114B98471148124B98470420114B984760
:100170001120114B9847AA20104B98470020104B94
:10018000984701200F4B984700200F4B98472C2091
:100190000E4B9847204670BD49024000A80C002035
:1001A000AC0C002029014000190540003901400035
:1001B000250540006D024000B502400029034000C3
:1001C000DD034000ED02400071034000A503400044
:1001D00008B50721014B984708BD00BF3D05400009
:1001E00002780F4B1A70427A5A725B7A13F0FF0F43
:1001F00011D010B400230A49C2185478CA18547098
:100200000133DBB24A7AD2B29A42F5D80022054BCA
:100210001A7010BC70470022024B1A70704700BF62
:10022000B40C0020B00C002010B50124044B1C704D
:10023000044B9847024A137813F0FF0FFBD110BD0F
:10024000B00C0020E505400008B50548054B98476F
:100250004FF46140044B9847003018BF012008BD9F
:10026000E1014000310540005506400010B582B064
:1002700004460A4B984718B12046094B984700E0BE
:10028000204602A921F8020D02220648064CA0478A
:10029000002206490648A04702B010BD09074000E9
:1002A0000D0740004467400029024000CC67400031
:1002B0006467400010B582B08DF807000B38C0B2FB
:1002C0000F2809D801220DF107010448044CA0476A
:1002D000002204490448A04702B010BD4C6740000A
:1002E00029024000CC6740006467400010B582B02E
:1002F00018B102238DF8073002E001238DF8073092
:1003000001220DF107010448044CA04700220449D2
:100310000448A04702B010BD5C67400029024000BD
:10032000CC6740006467400010B582B004460A4BB9
:10033000984718B12046094B984700E0204602A98B
:1003400021F8020D02220648064CA0470022064969
:100350000648A04702B010BD090740000D07400045
:100360004867400029024000CC67400064674000B5
:1003700010B582B08DF80700042809D801220DF1CC
:1003800007010448044CA047002204490448A04740
:1003900002B010BD5467400029024000CC67400005
:1003A0006467400010B582B08DF807002438C0B2F1
:1003B0002C2809D801220DF107010448044CA0475C
:1003C000002204490448A04702B010BD586740000D
:1003D00029024000CC6740006467400010B582B03D
:1003E0008DF80700032809D801220DF10701044800
:1003F000044CA047002204490448A04702B010BDA5
:100400006067400029024000CC67400064674000FC
:1004100070B588B03C4CA0477E28FCD13A4DA84727
:10042000000284B2A847204484B2A84780380A2832
:1004300068D8DFE800F006346767676767670928F0
:100440006400002C53D15DE0053C8DF81D402E4C1E
:10045000A047A047A047A0478DF814009DF81D3085
:1004600053B105AD0024284EB04705F8010F013403
:100470009DF81D309C42F7D3234B9847234B1B68B4
:1004800005A898473EE0204CA0470646A0470546F1
:10049000A0471F4B1B6831462846984732E0053C71
:1004A0008DF81040184CA0470002ADF80400A0479A
:1004B000BDF804301844ADF80400A0478DF81100D1
:1004C000A0479DF810305BB10DF1050500240E4EDC
:1004D000B04705F8010F01349DF810309C42F7D366
:1004E000094B98470B4B1B6801A898470AE0002569
:1004F000054EB0470135ABB29C42FAD802E0024C3F
:10050000A047A04708B070BD55074000C80C0020A8
:10051000C40C0020C00C0020014B1860704700BFC5
:10052000C00C0020014B1860704700BFC40C0020B5
:10053000014B1860704700BFC80C00202DE9F04740
:1005400086B002884FF6FF739A4209D1FF238DF8D7
:100550000A308DF80B3000271A464FF0010808E0EA
:100560000F46130A8DF80A30D2B28DF80B204FF0E7
:100570000008861C057B05F105093B440133D018B2
:10058000404435B13346711913F8012B1044994298
:10059000FAD1C043C4B27E20DFF844A0D047C9F3EB
:1005A0000720D0475FFA89F0D0470120D04738466E
:1005B000D0479DF80A00D0479DF80B00D047404631
:1005C000D0473DB137463544564617F8010BB04782
:1005D000BD42FAD12046024B984706B0BDE8F087ED
:1005E000350740002DE9F84304460F46164602F150
:1005F0000408007863781844553032B10B46114432
:1006000013F8012B10448B42FAD1C043C5B27E20AF
:10061000DFF83C90C847C8F30720C8475FFA88F066
:10062000C8470820C8474D20C8472078C847607889
:10063000C8473EB13C463E444F4614F8010BB8470C
:10064000B442FAD12846024B9847BDE8F88300BF70
:100650003507400010B582B004462348234B984725
:100660002046234B9847002222492348234B984792
:10067000234CA0477E28FCD1214CA047A047A0478F
:10068000A047A047A047A047A04700238DF8073008
:10069000A0479DF80730DBB28DF80730A0479DF8E2
:1006A0000730DBB28DF80730A0479DF807301844BB
:1006B000C0B28DF80700A0479DF80730DBB2072BCA
:1006C00007D89DF80730DBB2062B14BF00230123A7
:1006D00002E09DF8073000231BB10A4B9847012028
:1006E00000E0002002B010BD11044000F5074000FA
:1006F00085074000CC67400068674000E505400082
:1007000055074000150740000120704740BA80B2ED
:10071000704700BF08B501210348044B98474FF4C8
:100720000042034B1A6008BD008002400D154000D6
:1007300000E100E008B50146044A536913F0020FD6
:10074000FBD00248024B984708BD00BF0080024022
:100750001515400030B583B0074D084C2846A0471A
:1007600010F0010FFAD00DF107010348044B984730
:100770009DF8070003B030BD008002401115400015
:100780002915400030B587B0054600234FF4C0025C
:100790004FF000610F48104CA0470F200F4CA047AE
:1007A00000230393049305930095C02301934FF412
:1007B000006302930F20A047094C0A4A694620466D
:1007C000094B98472046094B98472046084B9847C5
:1007D00007B030BD000E0E40710D40009512400074
:1007E00000800240000E2707A9144000FD144000BD
:1007F00005154000014B1860704700BFCC0C00206D
:1008000008B50548054B984710F0010F02D0044B7E
:100810001B68984708BD00BF0080024011154000CA
:10082000CC0C002070B582B0064602AC022344F81E
:10083000043D094D21462846084B98474FF40012C5
:10084000074B5A63EE605620064B984721462846D0
:10085000054B984702B070BD008000400D0B400072
:1008600000120E4001000020390B4000F0B585B0A9
:10087000254D4FF000466E635620244CA0472E6352
:100880005620A047022704AE46F8047D204C20469F
:10089000204B9847002500951F4B2A46314620469D
:1008A0001E4EB04701232360A8201D4CA0471F20E7
:1008B000A047D320A0472846A0474020A047A1201A
:1008C000A047C820A047DA20A0473846A04781208B
:1008D000A0478F20A047A420A047A620A047D5204E
:1008E000A0478020A0478D20A0471420A047DB20F0
:1008F000A0474020A047D920A047F120A047AF2023
:10090000A04705B0F0BD00BF00120E40010000205E
:1009100000800040390A4000404B4C008D0A4000E6
:10092000250840000378002B47D02DE9F04F83B015
:100930008346224EDFF894A0DFF894907E2B35D8C2
:10094000203B1F4A52F823703B78DBB1012417F893
:10095000048002AD022345F8043D29463046D047C5
:100960004FF40013C9F83030C6F80C805620154BF0
:10097000984729463046144B98470134E4B23B78F7
:10098000A342E4D202AC022344F8043D214630469F
:10099000D0474FF40013C9F830300023F3605620DD
:1009A000084B984721463046074B98471BF8013FB4
:1009B000002BC3D103B0BDE8F08F7047008000402A
:1009C0003400002001000020390B40000D0B4000D6
:1009D00000120E4010B50E480E4B98473E210020E5
:1009E0000D4B98470D4CA0470028FCD00C4B984766
:1009F0000C4A0D4B9A620D4CA0470028FCD01020E9
:100A00000B4B98470B4B98470148024B984710BD3A
:100A1000000E270711174000111240006512400018
:100A200075124000013F132000040E408512400063
:100A3000A9114000FD15400010B50446104B984721
:100A400080232360636843F001036360636843F0BD
:100A500010036360636823F0800363600021204615
:100A6000084B9847636823F002036360636823F0D0
:100A70000403636000212046034B984710BD00BF6C
:100A8000E9124000F9124000111340002DE9F04135
:100A900004460D46164615491846154B9847074615
:100AA00000231A4629682046DFF85C80C0470822E8
:100AB000296820460F4B9847FAB2296820460E4B0A
:100AC00098470822296820460C4B984772082968E5
:100AD00020460B4B984786F0010202F0010229687C
:100AE0002046084B9847BDE8F08100BF000E27075D
:100AF000BD134000A9134000D5134000651340000A
:100B00002513400045134000FD13400008B543681D
:100B100013F0040F05D009680F290AD8054B984730
:100B200008BD0B68032B04D801219940C943014B30
:100B3000984708BDF912400010B50446236913F424
:100B4000007FFBD00F212046024B98474FF0807367
:100B5000236010BDF9124000F8B53848384B98476B
:100B60000B20384CA0470C20A0470D20A047364B47
:100B70004FF400021A631A61C3F8A020334C042515
:100B80006561C4F8A0506566C4F8905065656562FB
:100B9000C4F88050226F22F004022267626F22F0B4
:100BA000040262674FF480121A631A61C3F8A0202E
:100BB0004FF4803222632261C4F8A0204FF48002F7
:100BC0001A631A61C3F8A0204FF000620C2120487C
:100BD000204B9847204F39460320204EB0473946D6
:100BE0002846B04739460C20B04739460D20B0475B
:100BF00039460E20B0474FF080510920B0471849C0
:100C00000A20B04707F1405739465520B0473946CA
:100C10005F20B04713494C20B0476566C4F8905038
:100C200065656562C4F88050236F23F00403236771
:100C3000636F23F004036367F8BD00BF50140E40D8
:100C4000411540009512400000120E40000E0E406B
:100C500000100E40690F400001000008450E4000E2
:100C60000100001001000028C0F8841052004FF469
:100C70000043B3FBF2F2013AC2F30D02C0F88C203C
:100C8000704700BF4264B1F1C05F2FD007D8B1F107
:100C9000006F14D0B1F1805F1ED039B97047B1F147
:100CA000205F36D004D8B1F1005F29D04260704790
:100CB000B1F1405F2DD0B1F1605F2AD0F6E710B4FA
:100CC000046F016FD343214019400167446F416FA6
:100CD00021400B4043671AE0036F13430367416FE2
:100CE000436F0B4023EA02034367DFE7016F036FA3
:100CF0000B4023EA02030367436F13434367D5E7BF
:100D0000036F13430367436F13434367CEE74260A8
:100D100010BC7047416412F0010F14BF41660166B8
:100D200012F00A0F14BF0162416212F0020F02D0EA
:100D3000C0F8801004E012F0080F18BFC0F884104B
:100D400041610160704700BF10B44164019C0CB167
:100D5000416600E001660BB1016500E041650AB142
:100D6000016300E041630161016010BC704700BF96
:100D700070B582B0054616461C46B1F1005F14D02E
:100D800009D8B1F1805F10D0B1F1C05F0DD0B1F1E1
:100D9000006F2BD109E0B1F1405F17D0B1F1605F76
:100DA00014D0B1F1205F0BD020E032462846114B21
:100DB000984714F0010F14BF6E662E66012016E0EE
:100DC0001A4631460C4B9847012010E004F001030D
:100DD0000093C4F38003B1F1605F14BF00220122CD
:100DE00031462846054CA047012000E0002002B013
:100DF00070BD00BF850C4000150D4000490D40003E
:100E000012F0100F10D0C0F8B01012F0200F14BF65
:100E1000C0F8D410C0F8D01012F0400F14BFC0F8C2
:100E2000C010C0F8C4107047C0F8B410704700BFBD
:100E3000C36C0164704700BF41647047C06C704769
:100E4000806C704770B582B00D46430903F50013FE
:100E500003F207735C0201F0F043B3F1005F47D087
:100E600009D8B3F1805F21D0B3F1C05F2FD0B3F1C7
:100E7000006F6FD109E0B3F1405F55D0B3F1605F0F
:100E800052D0B3F1205F44D064E000F01F0001268F
:100E9000864032464FF000612046304B984715F0AF
:100EA000010F14BF66662666012054E000F01F00A3
:100EB0000126864032464FF080512046274B984706
:100EC00015F0010F14BF66662666012043E000F0AE
:100ED0001F000126864032464FF0C05120461F4B6E
:100EE000984715F0010F14BF66662666012032E0B0
:100EF00000F01F000126864032464FF00051204688
:100F0000164B984715F0010F14BF66662666012040
:100F100021E000F01F0101262A4606FA01F12046D1
:100F20000F4B9847304616E005F0605200F01F0165
:100F3000012605EA06030093C5F38003B2F1605F62
:100F400014BF0022012206FA01F12046054CA047F9
:100F5000304600E0002002B070BD00BF850C4000AC
:100F6000150D4000490D400070B582B005460E4693
:100F7000144602F0F043B3F1005F38D009D8B3F162
:100F8000805F1CD0B3F1C05F25D0B3F1006F50D1AA
:100F900009E0B3F1405F3AD0B3F1605F37D0B3F10D
:100FA000205F30D045E00A464FF00061224B984761
:100FB00014F0010F14BF6E662E6601203AE00A4657
:100FC0004FF080511C4B984714F0010F14BF6E6610
:100FD0002E6601202EE00A464FF0C051164B98476E
:100FE00014F0010F14BF6E662E66012022E00A463F
:100FF0004FF00051104B984714F0010F14BF6E666C
:101000002E66012016E00D4B9847012012E004F0F7
:10101000605204F001030093C4F38003B2F1605FF7
:1010200014BF0022012231462846054CA04701206A
:1010300000E0002002B070BD850C4000150D40009E
:10104000490D40002DE9F84381468846124B9847E8
:1010500005464846114B9847054013D0104C04F103
:1010600060062368434508D16168294205D0E368DA
:1010700040469847636825EA0305B44202D010341D
:10108000002DEED1074B1B6823B1074B1B680BB13A
:1010900048469847BDE8F8833D0E4000410E4000A9
:1010A000D80C0020880D0020D40C0020F8B50C4C82
:1010B0002468062C11D815460A4F2601BA19B951D1
:1010C000556093600699D1600134054A14601A4650
:1010D0002946054B98470020F8BD0120F8BD00BF08
:1010E000D00C0020D80C0020010E400008B50B21C8
:1010F0000148024B984708BD000E0E4045104000C5
:1011000008B50C210148024B984708BD00100E405D
:101110004510400008B50D210148024B984708BD15
:1011200000120E4045104000F8B505460C46174623
:10113000184B984706464FF0FF312846164B984704
:101140002846164B9847E2B202F01F03012199404E
:1011500063099B0003F1604303F56143C3F880100A
:10116000C3F88011002C06DA02F00F023F01FFB233
:101170000B48875407E03F01FFB204F1604404F5D7
:10118000614484F80073196031462846054B98473E
:10119000F8BD00BF410E4000390E40003D0E40003A
:1011A00014ED00E0310E4000184A136B23F0700379
:1011B00018431063936E13F0080F03D009E0013B4E
:1011C00003D11EE04FF4006310498A6E12F0080F3D
:1011D000F5D00E4A136B23F0030343F002031363AD
:1011E000906E10F0080004D000207047013B03D13E
:1011F00009E04FF4006305498A6E12F0080FF5D03C
:101200007047012070470120704700BF00040E4066
:1012100038B111490B6A114A1A40114B13430B6242
:1012200070470D48026A090289B222F45C1323F068
:10123000030343F45C1343F001030B4303620246D0
:10124000936E13F0010FFBD0034A136A43F09B73B4
:1012500043F480331362704700040E40FCFFC8FE65
:1012600002003701024B986E00F48030704700BFD7
:1012700000040E404FF00052014B9A62704700BFCD
:1012800000040E40024B986E00F00200704700BF51
:1012900000040E4022281ED81F280CD8114B9A6932
:1012A00001238340934318D0012303FA00F00D4B30
:1012B00018610020704720380A4BD3F80821012319
:1012C000834093430BD0012303FA00F0054BC3F88E
:1012D0000001002070470120704700207047002067
:1012E000704700BF00040E4008B51520014B984719
:1012F00008BD00BF95124000436823F4702343608B
:101300004368090401F470210B434360704700BF38
:10131000436823F07F434360436843EA01614160CF
:10132000704700BF32B100EB8100036B43F0010353
:101330000363704700EB8100036B23F00103036339
:10134000704700BF32B100EB8100036B43F0020332
:101350000363704700EB8100036B23F00203036318
:10136000704700BF042A0AD100EB8100036B23F011
:1013700008030363036B43F004030363704752B92C
:1013800000EB8100036B23F008030363036B23F07E
:10139000040303637047082A05D100EB8100036B47
:1013A00043F008030363704700EB81010B6B23F0EC
:1013B000F0030B630B6B1A430A637047431E194417
:1013C000B1FBF0F0431EFE2B94BF00B24FF0FF3094
:1013D000704700BF6AB110B4144600EB81010B6B7B
:1013E00023F47F430B630A6B42EA04220A63002062
:1013F00002E04FF0FF30704710BC704710B400EBB4
:101400008101086B80B208630C6B44EA036343EA12
:1014100002420A6310BC704710B40C0194420FD909
:101420001AE0416841F400214160120402F4E02214
:101430001A43026200201CE001201AE0012018E09B
:10144000630803EBC202B2FBF4F2D3085C1E4FF652
:10145000FE718C42E9D9EFE7C9004B0803EBC202E9
:10146000B2FBF1F2D3085C1E4FF6FE718C42E5D858
:10147000D7E710BC704700BF0A4BC0F8E430002328
:1014800043604362836288230360242303604FF434
:10149000807303604FF4002303604FF40033036054
:1014A000704700BF0041535570B505460C461646BF
:1014B0000F4B984700220F4B1A609CB132462168AF
:1014C00028460D4B9847024670B96168A3681943D6
:1014D00023691943E3680B4306490B6069680B43B2
:1014E0006B6002E0012200E00122104670BD00BFE7
:1014F00079144000480D0020191440004023036077
:10150000704700BF10230360704700BF81607047C1
:1015100040697047436913F0020F1DBFC1F3080112
:10152000C161002001207047436913F0010F05D00D
:101530008369C3F308030B600020704701207047E4
:101540004FF4004343607047FEE700BF08B5204BEF
:10155000204A9A4212D9204B1D4A9A421ED2114665
:10156000013B9B1A23F0030304331A4A134452F835
:10157000040B41F8040B9A42F9D10FE0144B154AC1
:101580009A420BD2144B124A9A1A144811182AB1D3
:1015900051F8042943F8042D8142F9D100BF104BC2
:1015A000104A9A420BD2131D0F4AD21A22F003029C
:1015B0001A44043B002143F8041B9A42FBD10B4B15
:1015C0000B4A9A600B4B98470B4B9847FEE700BFBE
:1015D00000000020486940008C0C00204469400055
:1015E000A80D00208C0C0020AB0D002000ED00E0C9
:1015F0000000400071264000811A40003D4B1B6BEB
:1016000003F00303032B5DD8DFE803F0020E2B2B5E
:10161000394B5B6913F0800F14BF4FF400424FF455
:10162000FA42364B1A604DE0324B1B6A13F0807F52
:1016300003D0334A314B1A6044E0324A2F4B1A60D0
:101640002C4B1B6A03F07003102B02D0202B04D00C
:1016500038E02D4A294B1A6034E0294A274B1A609A
:1016600030E0244B1B6A13F0807F03D0244A234BC5
:101670001A6012E0234A214B1A601E4B1B6A03F0CA
:101680007003102B02D0202B04D006E01E4A1B4B07
:101690001A6002E01A4A194B1A60164B1B6B03F0D2
:1016A0000303022B134A07BF936A926AD36AD26A72
:1016B0001248C3F30A41036801FB0333D2B2B3FB00
:1016C000F2F303600B4B1B6B03F07003702B07D11D
:1016D0000A4A13680D49A1FB03135B0813607047A6
:1016E000044B1B6B0549C3F302120B68D3400B601C
:1016F000704700BF00040E4010140E400804002084
:10170000001BB70000093D0000127A00ABAAAAAA8C
:101710001A4B984207D84FF08063194A136002F5BC
:10172000007213607047174B984206D8164B144A44
:10173000136002F5007213607047144B984206D88C
:10174000134B0F4A136002F5007213607047114B80
:10175000984206D8104B0A4A136002F500721360D3
:1017600070470E4B984294BF4FF004230C4B044A31
:10177000136002F500721360704700BFFF2C310147
:10178000000A0E40FF59620200010004FF86930325
:1017900000020004FFB3C40400030004FFE0F505E9
:1017A00000050004094B1B6813B9094A074B1A606E
:1017B000064B1B681A180749914204DB1046034A7E
:1017C0001060184670474FF0FF3070474C0D0020F6
:1017D000A83D0020FC7F02200B280ED104290CD14B
:1017E000064A137883F001031370054BD96B01226D
:1017F000114201D11A6370475A637047500D00209F
:10180000000E0E40437B03EBC3035B00A3F52F7375
:10181000024A13608278024B1A7070470C04002051
:1018200010040020704700BF70B582B0064602ACBD
:10183000022344F8043D094D21462846084B9847A9
:101840004FF40012074B5A63EE605620064B984740
:1018500021462846054B984702B070BD00800040E5
:101860000D0B400000120E4001000020390B40001B
:1018700030B583B00B200F4B98470A2204210E4845
:101880000E4B98470E4C0F4B0093792304220B21EB
:1018900020460D4DA8474FF400620C4B1A600522FC
:1018A0000B2120460A4B984704212046094B9847B4
:1018B00003B030BD9512400000120E40690C40008C
:1018C000000E0E40D9174000AD10400000E100E0CE
:1018D00029114000310E400000B585B00523ADF858
:1018E000003001238DF80C3010B98DF8023002E081
:1018F00000238DF802306846024B984705B05DF82A
:1019000004FB00BFD1014000074A137883F00103B4
:10191000137023B14FF40002044B1A6370474FF465
:101920000002024B5A637047510D002000120E4016
:101930002DE9F04F83B04FF0000ADFF888B01E4F5A
:10194000DFF89C90DFF89C803E460AF0070040F0EC
:10195000B000D8471020D8470020D847802502ACD7
:10196000022344F8043D21463046C8474FF4001393
:10197000C8F830300023FB605620104B98472146B2
:1019800030460F4B9847013DE9D10AF1010ABAF1FF
:10199000040FDAD1B0200B4B98470B4D0B4B1A6854
:1019A0000B4928460B4B98470B480C4CA047284640
:1019B000A04703B0BDE8F08F008000400100002088
:1019C000390B4000291840008C0D00200C04002029
:1019D0006C6740005D2740007067400025094000AB
:1019E0000D0B400000120E402DE9F04F83B04FF078
:1019F000000ADFF878B01A4FDFF87C90DFF87C80BF
:101A00003E460AF0070040F0B000D8471020D84703
:101A10000020D847802502AC022344F8043D21462B
:101A20003046C8474FF40013C8F830300023FB603D
:101A300056200C4B9847214630460B4B9847013DAA
:101A4000E9D10AF1010ABAF1040FDAD1B020074B4B
:101A500098470748074B984703B0BDE8F08F00BF91
:101A60000080004001000020390B40002918400090
:101A700084674000250940000D0B400000120E4015
:101A80002DE988483D4B98473D4B98473D4B98473B
:101A90003D4B98473D493E483E4B984700B9FEE7CD
:101AA0004FF400023C4B5A630BE03C483C4B9847D8
:101AB0004FF40003384A13633A4B984700203A4BDF
:101AC00098473A4B1B78002BEFD0394B1B78012BF2
:101AD0000CD1374C334B98470020334B9847237831
:101AE000012BF7D0314B1B78002BEAD0304B1B7801
:101AF000002BE6D12F4B984701202B4B98472E4BBC
:101B000098472E4B1A680023D000510F4FEA411915
:101B100049EAD0694FEA4018B8EB000069EB0101CF
:101B20008F0147EA90678601301A67EB0101801840
:101B300059414FEA011B4BEA107B4FEA001ABAEBFE
:101B400000006BEB01014B0243EAD0534202104606
:101B5000194643F2B062002343F2AF640025001936
:101B60006941174CA0470E4B9847104B1B78002B30
:101B7000A7D00F4B1B78002BBCD0A2E7D5094000A3
:101B8000590B4000711840006D08400025184000B6
:101B9000051840004901400000120E4025CA82008D
:101BA00001000020E9194000D9184000500D002024
:101BB0001004002031194000091940000C040020D5
:101BC0005923400081F0004102E000BF83F0004350
:101BD00030B54FEA41044FEA430594EA050F08BFC8
:101BE00090EA020F1FBF54EA000C55EA020C7FEA8C
:101BF000645C7FEA655C00F0E2804FEA5454D4EB09
:101C00005555B8BF6D420CDD2C4480EA020281EAD2
:101C1000030382EA000083EA010180EA020281EA0A
:101C20000303362D88BF30BD11F0004F4FEA01315C
:101C30004FF4801C4CEA113102D0404261EB41016B
:101C400013F0004F4FEA03334CEA133302D05242F1
:101C500063EB430394EA050F00F0A780A4F10104AD
:101C6000D5F1200E0DDB02FA0EFC22FA05F28018E7
:101C700041F1000103FA0EF2801843FA05F35941CD
:101C80000EE0A5F120050EF1200E012A03FA0EFC4C
:101C900028BF4CF0020C43FA05F3C01851EBE37176
:101CA00001F0004507D54FF0000EDCF1000C7EEB93
:101CB00000006EEB0101B1F5801F1BD3B1F5001FD1
:101CC0000CD349085FEA30004FEA3C0C04F10104F0
:101CD0004FEA445212F5800F80F09A80BCF1004F19
:101CE00008BF5FEA500C50F1000041EB045141EA9B
:101CF000050130BD5FEA4C0C404141EB010111F49C
:101D0000801FA4F10104E9D191F0000F04BF014646
:101D10000020B1FA81F308BF2033A3F10B03B3F124
:101D200020020CDA0C3208DD02F1140CC2F10C02B4
:101D300001FA0CF021FA02F10CE002F11402D8BF12
:101D4000C2F1200C01FA02F120FA0CFCDCBF41EADE
:101D50000C019040E41AA2BF01EB0451294330BDAD
:101D60006FEA04041F3C1CDA0C340EDC04F114048A
:101D7000C4F1200220FA04F001FA02F340EA030061
:101D800021FA04F345EA030130BDC4F10C04C4F1A7
:101D9000200220FA02F001FA04F340EA0300294687
:101DA00030BD21FA04F0294630BD94F0000F83F4D1
:101DB000801306BF81F480110134013D4EE77FEAB4
:101DC000645C18BF7FEA655C29D094EA050F08BF00
:101DD00090EA020F05D054EA000C04BF19461046E1
:101DE00030BD91EA030F1EBF0021002030BD5FEA25
:101DF000545C05D14000494128BF41F0004130BD4D
:101E000014F580043CBF01F5801130BD01F00045A0
:101E100045F0FE4141F470014FF0000030BD7FEA13
:101E2000645C1ABF194610467FEA655C1CBF0B460E
:101E3000024650EA013406BF52EA033591EA030F25
:101E400041F4002130BD00BF90F0000F04BF00211D
:101E5000704730B54FF4806404F132044FF0000550
:101E60004FF0000150E700BF90F0000F04BF0021C9
:101E7000704730B54FF4806404F1320410F000452F
:101E800048BF40424FF000013EE700BF42004FEA2A
:101E9000E2014FEA31014FEA02701FBF12F07F43A7
:101EA00093F07F4F81F06051704792F0000F14BFA4
:101EB00093F07F4F704730B54FF4607401F00045E8
:101EC00021F0004120E700BF50EA010208BF70473F
:101ED00030B54FF000050AE050EA010208BF704734
:101EE00030B511F0004502D5404261EB41014FF49D
:101EF000806404F132045FEA915C3FF4DCAE4FF0A1
:101F000003025FEADC0C18BF03325FEADC0C18BF87
:101F1000033202EBDC02C2F1200300FA03FC20FAD8
:101F200002F001FA03FE40EA0E0021FA02F1144425
:101F3000C1E600BF70B54FF0FF0C4CF4E06C1CEA3A
:101F400011541DBF1CEA135594EA0C0F95EA0C0FAF
:101F500000F0DEF82C4481EA030621EA4C5123EA22
:101F60004C5350EA013518BF52EA033541F4801151
:101F700043F4801338D0A0FB02CE4FF00005E1FB04
:101F800002E506F00042E0FB03E54FF00006E1FB4E
:101F900003569CF0000F18BF4EF0010EA4F1FF0491
:101FA000B6F5007F64F5407404D25FEA4E0E6D41D1
:101FB00046EB060642EAC62141EA55514FEAC520E2
:101FC00040EA5E504FEACE2EB4F1FD0C88BFBCF55E
:101FD000E06F1ED8BEF1004F08BF5FEA500E50F10F
:101FE000000041EB045170BD06F0004646EA0101D5
:101FF00040EA020081EA0301B4EB5C04C2BFD4EB07
:102000000C0541EA045170BD41F480114FF0000EFF
:10201000013C00F3AB8014F1360FDEBF002001F06D
:10202000004170BDC4F10004203C35DA0C341BDCE7
:1020300004F11404C4F1200500FA05F320FA04F0B9
:1020400001FA05F240EA020001F0004221F00041ED
:1020500010EBD37021FA04F642EB06015EEA430E60
:1020600008BF20EAD37070BDC4F10C04C4F1200590
:1020700000FA04F320FA05F001FA04F240EA020043
:1020800001F0004110EBD37041F100015EEA430E14
:1020900008BF20EAD37070BDC4F1200500FA05F234
:1020A0004EEA020E20FA04F301FA05F243EA0203B3
:1020B00021FA04F001F0004121FA04F220EA0200C2
:1020C00000EBD3705EEA430E08BF20EAD37070BD08
:1020D00094F0000F0FD101F00046400041EB0101E8
:1020E00011F4801F08BF013CF7D041EA060195F0CA
:1020F000000F18BF704703F00046520043EB030384
:1021000013F4801F08BF013DF7D043EA0603704770
:1021100094EA0C0F0CEA135518BF95EA0C0F0CD07B
:1021200050EA410618BF52EA4306D1D181EA0301C1
:1021300001F000414FF0000070BD50EA410606BFBB
:102140001046194652EA430619D094EA0C0F02D100
:1021500050EA013613D195EA0C0F05D152EA033645
:102160001CBF104619460AD181EA030101F0004163
:1021700041F0FE4141F470014FF0000070BD41F0AC
:10218000FE4141F4780170BD70B54FF0FF0C4CF486
:10219000E06C1CEA11541DBF1CEA135594EA0C0FA5
:1021A00095EA0C0F00F0A7F8A4EB050481EA030EF2
:1021B00052EA03354FEA013100F088804FEA0333D9
:1021C0004FF0805545EA131343EA12634FEA0222A7
:1021D00045EA111545EA10654FEA00260EF0004168
:1021E0009D4208BF964244F1FD0404F5407402D2BA
:1021F0005B084FEA3202B61A65EB03055B084FEA4B
:1022000032024FF480104FF4002CB6EB020E75EB47
:10221000030E22BFB61A754640EA0C005B084FEA6F
:102220003202B6EB020E75EB030E22BFB61A7546EC
:1022300040EA5C005B084FEA3202B6EB020E75EB37
:10224000030E22BFB61A754640EA9C005B084FEAAF
:102250003202B6EB020E75EB030E22BFB61A7546BC
:1022600040EADC0055EA060E18D04FEA051545EAAB
:1022700016754FEA06164FEAC30343EA52734FEA54
:10228000C2025FEA1C1CC0D111F4801F0BD141EACD
:1022900000014FF000004FF0004CB6E711F4801F32
:1022A00004BF01430020B4F1FD0C88BFBCF5E06F12
:1022B0003FF6AFAEB5EB030C04BFB6EB020C5FEA22
:1022C000500C50F1000041EB045170BD0EF0004E77
:1022D0004EEA113114EB5C04C2BFD4EB0C0541EAA9
:1022E000045170BD41F480114FF0000E013C90E6A6
:1022F00045EA060E8DE60CEA135594EA0C0F08BF6A
:1023000095EA0C0F3FF43BAF94EA0C0F0AD150EA68
:1023100001347FF434AF95EA0C0F7FF425AF1046FB
:1023200019462CE795EA0C0F06D152EA03353FF423
:10233000FDAE1046194622E750EA410618BF52EAA0
:1023400043067FF4C5AE50EA41047FF40DAF52EA74
:1023500043057FF4EBAE12E753B94AB9002908BF31
:1023600000281CBF4FF0FF314FF0FF3000F07EB966
:10237000ADF1080C6DE904CE00F006F8DDF804E0DC
:10238000DDE9022304B070472DE9F0478C460E4684
:102390000446089D002B50D18A4217466CD9B2FAE8
:1023A00082FEBEF1000F0BD0CEF1200420FA04F41F
:1023B00001FA0EF644EA060C02FA0EF700FA0EF4E1
:1023C0004FEA1749220CBCFBF9F01FFA87F809FB0A
:1023D00010C642EA064600FB08F3B34209D9F619D3
:1023E00000F1FF3280F02281B34240F21F810238B7
:1023F0003E44F61AA2B2B6FBF9F309FB136642EAB1
:10240000064403FB08F8A04509D9E41903F1FF329B
:1024100080F00A81A04540F20781023B3C44C8EBB2
:10242000040443EA00400021002D62D024FA0EF497
:1024300000232C606B60BDE8F0878B4207D9002D2C
:1024400055D0002185E841000846BDE8F087B3FA81
:1024500083F1002940F09080B34202D3824200F21F
:10246000F880841A66EB03060120B446002D40D0A4
:1024700085E81010BDE8F08712B90127B7FBF2F725
:10248000B7FA87FEBEF1000F35D1F31B4FEA1748AC
:102490001FFA87FC0121B3FBF8F0220C08FB103671
:1024A00042EA06460CFB00F3B34207D9F61900F1E5
:1024B000FF3202D2B34200F2CE801046F61AA2B228
:1024C000B6FBF8F308FB136642EA06440CFB03FC78
:1024D000A44507D9E41903F1FF3202D2A44500F262
:1024E000B5801346CCEB040443EA00409CE7294640
:1024F0002846BDE8F087CEF1200106FA0EF307FA70
:102500000EF720FA01F94FEA1748CE4049EA0309CD
:10251000B6FBF8FA4FEA194408FB1A661FFA87FC63
:1025200044EA06430AFB0CF29A4200FA0EF40AD976
:10253000DB190AF1FF3180F087809A4240F28480F3
:10254000AAF1020A3B449B1A1FFA89F9B3FBF8F17E
:1025500008FB113349EA034301FB0CF69E4207D9FD
:10256000DB1901F1FF326BD29E4269D902393B443B
:102570009B1B41EA0A418EE7C1F1200E22FA0EF4BC
:102580008B40234320FA0EF706FA01F44FEA134C6E
:1025900026FA0EF63C43B6FBFCF9270C0CFB196639
:1025A0001FFA83F847EA064609FB08F7B74202FA22
:1025B00001F200FA01FA08D9F61809F1FF3041D208
:1025C000B7423FD9A9F102091E44F61BA0B2B6FBDF
:1025D000FCF40CFB146640EA064704FB08F8B84517
:1025E00007D9FF1804F1FF3028D2B84526D9023C9C
:1025F0001F4444EA0940C8EB0707A0FB02894F4586
:1026000044464E4614D329D065B3BAEB040367EBB6
:10261000060707FA0EFECB40CF404EEA030385E8DB
:1026200088000021BDE8F0871346F8E61046E0E692
:10263000B8EB020469EB03060138E5E70446D8E786
:10264000114695E78146C0E78A467CE7023B3C4459
:1026500048E708460AE702383E442FE7C245E7D379
:102660003E46D1E72946BDE8F08700BF704700BF6E
:1026700070B50F4E0F4D761BB61018BF002405D055
:10268000013455F8043B9847A642F9D10A4E0B4D48
:10269000761B04F043F9B61018BF002406D00134AD
:1026A00055F8043B9847A642F9D170BD70BD00BFF4
:1026B00028694000286940003069400028694000CE
:1026C00070B4840746D0541E002A41D0CDB20346D0
:1026D00002E0621EE4B3144603F8015B9A07F8D1E6
:1026E000032C2ED9CDB245EA05250F2C45EA054528
:1026F00019D903F110022646103E0F2E42F8105C45
:1027000042F80C5C42F8085C42F8045C02F11002EA
:10271000F2D8A4F1100222F00F0204F00F041032DC
:10272000032C13440DD91E462246043A032A46F8C8
:10273000045BFAD8221F22F003020432134404F08F
:1027400003042CB1C9B21C4403F8011BA342FBD102
:1027500070BC704714460346C2E700BF0EB4F0B524
:102760009CB021AB0F4953F8042B019305466FF041
:102770000044086802954FF402774FF6FF7602A9ED
:102780000695ADF8147004940794ADF8166000F047
:1027900085F8029B00221A701CB0BDE8F04003B01F
:1027A000704700BF4008002000000000000000004B
:1027B0000000000000000000000000000000000019
:1027C00090F800F06DE9024520F007016FF0000C71
:1027D00010F0070491F820F040F049804FF0000419
:1027E0006FF00700D1E9002391F840F000F10800F4
:1027F00082FA4CF2A4FA8CF283FA4CF3A2FA8CF32C
:102800004BBBD1E9022382FA4CF200F10800A4FA92
:102810008CF283FA4CF3A2FA8CF3E3B9D1E90423E6
:1028200082FA4CF200F10800A4FA8CF283FA4CF31D
:10283000A2FA8CF37BB9D1E9062301F1200182FAD7
:102840004CF200F10800A4FA8CF283FA4CF3A2FADD
:102850008CF3002BC6D0002A04BF04301A4612BAEB
:10286000B2FA82F2FDE8024500EBD2007047D1E9EE
:10287000002304F00305C4F100004FEAC50514F07D
:10288000040F91F840F00CFA05F562EA05021CBF4E
:1028900063EA050362464FF00004A9E72DE9F04F13
:1028A000C1B00C46099115460E930A9002F05EFCE9
:1028B000036817931846FFF783FFA38916901E0637
:1028C00003D52369002B01F0198100231A461293C6
:1028D0002593249319930B93DFF864A4149230ABDF
:1028E000239399461592A84698F800304446EBB1D8
:1028F000252B02D11AE0252B03D014F8013F002B21
:10290000F9D1C8EB04058DB1249B259AC9F8008044
:1029100001332A44072BC9F804502592249300F36D
:10292000A68009F108090B9B2B440B932378002BFD
:1029300000F0A68000231A468DF86F3019460C93DC
:1029400007934FF0FF3B637804F101085D4608F1FF
:102950000108A3F12000582800F22584DFE810F0D8
:10296000880323042304900323042304230423045F
:10297000230423049703A50323045D00E20023043A
:10298000FE0005010501050105010501050105011F
:102990000501050123042304230423042304230441
:1029A0002304230423042304150181022304810248
:1029B0002304230423042304C60223042304CD0296
:1029C00023042304230423042304F70223042304FD
:1029D00025032304230423042304230423042304BE
:1029E0002304230423046603790381028102810204
:1029F0008103790323042304D1032304DB03A3000D
:102A00006400EE032304F5032304AA032304230430
:102A1000BC030C980E9340420C90079B43F00403B8
:102A2000079398F8003092E70E98AB4600210468AF
:102A30008DF86F10071D0798302378228B458DF88D
:102A400070304FF000058DF8712040F00203C0F2A5
:102A5000C78320F0800343F00203079354EA050381
:102A60000E9700F093830F461192B348CEE223AA4B
:102A700009990A9803F09EFC48B90DF1C00952E784
:102A8000259B23B10A98099923AA03F093FC099B7B
:102A90009B8913F0400F0B9B18BF4FF0FF33184674
:102AA00041B0BDE8F08F1193AB46002A41F023827C
:102AB000079A12F0200300F02E820E9F073727F0AE
:102AC0000703002703F10801BB450E91D3E9004538
:102AD0008DF86F70C0F2528722F08003079354EA9A
:102AE000050300F0758330AEE20842EA4572E9085A
:102AF00004F007030D461446303354EA050206F885
:102B0000013DF1D1079AD10740F18480302B00F0CC
:102B100081803022731E06F8012C30AAD21A0D9241
:102B20001E467AE098F800302A2B08F1010401F0E3
:102B3000B181A3F13000092898BF002501F264811A
:102B400014F8013B05EB850500EB4505A3F13000CA
:102B50000928F5D945EAE575A046FAE6079B43F052
:102B60008003079398F80030F1E6A3F130000023CA
:102B70001C4618F8013B04EB840400EB4404A3F169
:102B800030000928F5D90C94E3E61193AB46002AEE
:102B900041F0C981079B43F010030793079B9806F8
:102BA00040F130850E9F073727F00707D7E900234C
:102BB00007F108010E9114461D46002A73F1000327
:102BC000C0F25B85BBF1000F9DF86F70C0F23885D5
:102BD000079B23F08003079354EA050300F0DB8191
:102BE000002D08BF0A2CC0F0DB8130AE20462946FC
:102BF0000A220023FFF7B0FB303206F8012D2046F1
:102C0000294600230A22FFF7A7FB04460D4654EA93
:102C10000503EBD130AB9B1B0D930D9B5B45B8BF00
:102C20005B4608930023139317B1089B0133089365
:102C3000079B13F002030F9302D0089B0233089303
:102C4000079B13F08403109340F0D7820C9B089AE3
:102C50009D1A002D40F3D182102D2599249A374FCB
:102C600027DD189648461024B946099E2F460A9D2E
:102C700004E0103F102F00F1080016DD01322F4B49
:102C800024921031072A259180E81800F1DD23AA4B
:102C90003146284603F08EFB00287FF4F8AE103F43
:102CA000102F2599249A30A8E8DC189E3D464F46FF
:102CB000814601326C18072A25942492C9F80070C5
:102CC000C9F8045000F328849DF86F7009F10809D1
:102CD00077B1249B013301340DF16F010122072BE1
:102CE0002594249389E8060000F3A08309F10809DC
:102CF0000F9B6BB1249B013302341CA90222072BCA
:102D00002594249389E8060000F39C8309F10809BF
:102D1000109B802B00F0D5820D9BC3EB0B07002F7F
:102D200039DD074A249B0F92102F28DD22464FF0F1
:102D3000100B0A9D099C0AE0D0674000F067400034
:102D40009C674000103F102F09F1080916DD013380
:102D50001032072B2592249389E8000CF2DD23AA78
:102D60002146284603F026FB00287FF490AE103F52
:102D7000102F259A249B0DF1C009E8DC144601337D
:102D80000F9A24933C44072B259489E8840000F390
:102D9000418309F10809079BDA0500F13082249B81
:102DA0000D99C9F8006001330C44072B2594C9F82C
:102DB0000410249300F3188309F10809079B5907AD
:102DC0003FD50C9B089A9D1A002D3ADD102D249BAF
:102DD000BC4F23DD22461026DDF828B0099C04E014
:102DE000103D102D09F1080917DD0133B549249371
:102DF0001032072B259289E84200F1DD23AA2146F3
:102E0000584603F0D7FA00287FF441AE103D102D4C
:102E1000259A249B0DF1C009E7DC144601332C44AC
:102E2000072B25942493C9F80070C9F8045008DDD5
:102E300023AA09990A9803F0BDFA00287FF427AE67
:102E4000259C0B9B0C9A08998A42ACBF9B185B1877
:102E50000B93002C40F0D482002324930DF1C00981
:102E600042E51193AB46002A41F059800E9F073787
:102E700027F0070303F108020E921A6814925B68A8
:102E80001593159B149D23F00044284621464FF0CE
:102E9000FF328D4B03F018FC002840F0C184284617
:102EA00021464FF0FF32884B03F0F0FB002840F042
:102EB000B784149815990022002303F0DDFB002845
:102EC00040F04B879DF86F70804E814B079921F041
:102ED00080010791119903224FF0000B08924729B6
:102EE000D8BF1E460D92CDF84CB09DE6079B43F02F
:102EF0000803079398F8003029E51193AB46002AA0
:102F000041F00980079B43F010030793079A12F0E2
:102F100020037FF4D2AD079911F0100200F007856D
:102F20000E988DF86F30BBF1000F046800F10407B4
:102F30004FF00005C0F221850A4622F08002079278
:102F400054EA05020E9700F043811F46CBE511932A
:102F5000AB46002A40F0D787079B43F01003079346
:102F6000079A12F0200300F032830E9F073727F0F4
:102F70000703002703F10801BB450E91D3E9004583
:102F80008DF86F70C0F25C8322F08003079354EADF
:102F900005037FF425AEBBF1000F00F0FE80002496
:102FA00040AE303406F8414D34E61193AB46002A6A
:102FB00040F0A587079B47489D0640F197800E9FEC
:102FC000073727F00703D3E9004503F108020E9203
:102FD000079A12F0010700F0418254EA050300F05D
:102FE000F5849DF844208DF871200027079A8DF80C
:102FF0006F703023BB458DF8703042F00203C0F291
:10300000A98622F0800343F00203079330AE230920
:1030100004F00F0143EA05732A091C461546435C78
:1030200006F8013D54EA0503F1D1F3E50E99119339
:103030000A688DF8982000230A461F468DF86F30E5
:10304000043201230893BB4613970E920D9326AECC
:10305000EEE51193AB46002A3FF4A0AD8DF86F105A
:103060009CE5079B43F04003079398F800306EE41B
:1030700098F8003000297FF46AAC0122202166E430
:10308000079B43F00103079398F800305FE40E9C20
:1030900023680C9318460028234603F10403FFF627
:1030A000B8AC0E9398F8003051E498F80030012243
:1030B0002B214CE41193AB46002A3FF451AF8DF81D
:1030C0006F104DE7F0674000FFFFEF7FB0674000F3
:1030D000AC674000BC6740001193AB46002A40F04B
:1030E0000387079B99489D063FF569AF079BDC0660
:1030F00040F15E840E9A1346043314680E93002543
:1031000066E798F800306C2B00F0E184079840F0F7
:10311000100007901BE4002A40F0DB86079B9B060B
:1031200040F12F840E9A0B991368CD17084604328C
:1031300029460E92C3E90001FFF7D6BB079B43F077
:103140002003079398F8003001E40E9A1193166853
:1031500000248DF86F40171D002E00F0BD85002D56
:10316000C0F20F852A462146304602F0C1FA0028F7
:1031700000F00486831B0D93A34623EAE3730E97A6
:103180000893CDF84CB09DF86F704DE56F481192E3
:10319000BBF1000F40F073815F464FF0000BCDF89C
:1031A00034B030AE39E51193002A40F0B086119A60
:1031B000002A3FF465AC002301211F4608918DF8D9
:1031C00098208DF86F309B4613930D9126AE2FE516
:1031D000BBF1000F00F0DD8500270024002582E40C
:1031E0005A480793119254EA05030E974FF00007CF
:1031F0007FF40CAF0024002508E7259C68E5119BAF
:10320000652B40F3A980149815990022002303F040
:1032100029FA002800F03581249B4D4AC9F8002086
:10322000013301340122072B25942493C9F804208B
:1032300000F3E68309F108091D9B129A934203DB10
:10324000079BDB077FF5BAAD249B1699179AC9F83F
:10325000002001330C44072B2594C9F80410249353
:1032600000F33F8409F10809129B5D1E002D7FF7D2
:10327000A5AD384A249B0F92102D40F3E68110260D
:103280000A9FDDF824B005E009F10809103D102D72
:1032900040F3DB8101331034072B25942493C9F8C4
:1032A00000A0C9F80460EFDD23AA5946384603F0B0
:1032B00081F800287FF4EBAB259C249B0DF1C0091D
:1032C000E4E70C9B089A9F1A002F7FF725AD214A4F
:1032D000249B0F92102F2BDD4A462146B94610251C
:1032E00037460A9C099E06E0A9F11009B9F1100FB2
:1032F00002F1080218DD01331031072B25912493C8
:10330000C2F800A05560EFDD23AA3146204603F045
:1033100051F800287FF4BBABA9F11009B9F1100FE7
:103320002599249B30AAE6DC3E460C464F46914642
:1033300001330F9A24933C44072B259489E8840099
:1033400000F3458209F10809E6E400BFD0674000B8
:10335000EC6740009C674000129B249D012B40F3CA
:103360000882013501340123072D25942495C9F8DD
:103370000060C9F8043000F30D8209F10809169ABB
:10338000179BC9F8003001351444072D2594249566
:10339000C9F8042000F30E8209F1080900231498EB
:1033A0001599002203F05EF9129B002840F0C380BB
:1033B000013B013501361C44072D24952594C9F89D
:1033C0000060C9F8043000F3F58009F10809199A82
:1033D000C9F80420013514441FAB072D259424950A
:1033E000C9F800307FF7E8AC23AA09990A9802F0DF
:1033F000E1FF00287FF44BAB259C0DF1C009DDE413
:1034000023AA09990A9802F0D5FF00283FF424ADB9
:10341000FFF73DBB23AA09990A9802F0CBFF0028C9
:103420007FF435AB259C0DF1C009B4E423AA0999BA
:103430000A9802F0BFFF00287FF429AB259C0DF10C
:10344000C00955E423AA09990A9802F0B3FF00289D
:103450007FF41DAB259C0DF1C00959E4BBF1000FB1
:103460008DF86F70C0F2D88222F08003079354EA7F
:1034700005037FF4CBADBBF1000F3FF48DAE002709
:10348000B8E61D9D002D40F3CA82139B129A934209
:10349000A8BF1346002B1D460DDD249BC9F8006014
:1034A00001332C44072B2594C9F80450249300F3CE
:1034B0009C8309F10809139B002DA8BF5B1B002BFF
:1034C0001D4640F3F680BA4A249B0F92102D40F31C
:1034D0008A8222461027DDF828B0099C05E009F110
:1034E0000809103D102D40F37D8201331032072B67
:1034F00025922493C9F800A0C9F80470EFDD23AA2F
:103500002146584602F056FF00287FF4C0AA259AAB
:10351000249B0DF1C009E4E723AA09990A9802F057
:1035200049FF00287FF4B3AA9DF86F70259C0DF128
:10353000C009FFF7CDBB5E1E002E7FF748AF9C4B46
:103540000F93102E2CDDCDF834801027B046DDF817
:1035500028B0099E06E0A8F11008B8F1100F09F193
:1035600008091ADD01351034072D25942495C9F872
:1035700000A0C9F80470EEDD23AA3146584602F0D7
:1035800019FF00287FF483AAA8F11008B8F1100FE2
:10359000259C249D0DF1C009E4DC4646DDF834800D
:1035A0000F9B01353444072D2594249589E8480064
:1035B0007FF70BAF23AA09990A9802F0FBFE0028B7
:1035C0007FF465AA259C249D0DF1C009FFE60799AB
:1035D00011F0100200F008810E988DF86F30BBF1E9
:1035E000000F046800F104074FF0000526DB0A46CF
:1035F00022F08002079254EA05020E971F467FF4DC
:10360000EFAAC8E4079BD9062AD4079B5A0627D5F8
:103610000E99B1F900400431E51722462B460E9170
:10362000FFF7CBBA0E998DF86F30BBF1000F0C6825
:1036300001F104074FF0000580F247820E971F4604
:1036400054EA05037FF4CCAAAAE401330F9A249329
:103650002C44072B259489E824007FF7ADABC3E603
:103660000E9A146813460433E51722460E93002A77
:103670002B4673F10003BFF6A5AA64424FF02D0755
:1036800065EB4505BBF1000F8DF86F70FFF6A8AA3A
:10369000079B23F080030793FFF7A2BA23AA099997
:1036A0000A9802F087FE00287FF4F1A9259C0DF10D
:1036B000C009139A1D9B32441746129A934247DB66
:1036C000079AD50744D412990E44F51BCB1A9D4294
:1036D000A8BF1D46002D2E460DDD249AC9F80070A6
:1036E00001322C44072A2594C9F80450249200F38F
:1036F0000B8309F10809002EACBF9D1B1D46002D50
:103700007FF75CAB2A4A249B0F92102D9DDD10267B
:103710000A9FDDF824B004E009F10809103D102DDE
:1037200093DD01331034072B25942493C9F800A0AE
:10373000C9F80460F0DD23AA5946384602F03AFE83
:1037400000287FF4A4A9259C249B0DF1C009E5E77E
:10375000249A16981799C9F8001001320444072AD0
:103760002594C9F80400249200F3A98209F10809FC
:10377000A9E7079BD8073FF5F4AD013501340123D4
:10378000072D25942495C9F80060C9F804307FF707
:103790001CAE0FE723AA09990A9802F00BFE002835
:1037A0007FF475A9259C249D0DF1C009E7E500BFB4
:1037B0009C67400023AA09990A9802F0FBFD0028A3
:1037C0007FF465A9259C249D0DF1C009E6E523AA97
:1037D00009990A9802F0EEFD00287FF458A9259C6B
:1037E0000DF1C009FFF798BA079911F040033FF4B3
:1037F00019AF0E988DF86F20BBF1000F048800F10F
:1038000004074FF00005C0F2B98121F0800307934F
:1038100054EA05030E9717467FF4E2A9FFF7BBBBF6
:10382000149C22462046159C2346214602F04CFF5C
:10383000002840F01783119BBBF1FF3F23F02003CA
:103840000D9300F07082472B00F09281079B43F4A8
:1038500080731093159B1F1E149B0893BBBF3B46A0
:1038600003F1004700232D230F93119B662B00F0DB
:103870005D82462B00F051810D9B089A452B21A8B3
:103880001EA90CBF0BF101055D46049003911DA814
:1038900002213B460290019500910A9800F0F0FB4E
:1038A000119B672B064640F09082079BDA0740F198
:1038B000AF827419089839460022002302F0D2FE24
:1038C000002840F09081219B9C4206D930215A1C4F
:1038D00021921970219B9C42F9D89B1B12930D9B3E
:1038E000472B00F07981119B652B40F37D82119B62
:1038F000662B1D9B139300F05B82139A12998A42E8
:10390000C0F23082079BD90700F1848222EAE27379
:103910000D92672211920F9A002A40F0538108936A
:10392000109B079393469DF86F70FFF77DB9079939
:1039300011F0400315D00E988DF86F20BBF1000FE9
:10394000048800F104074FF0000516DB21F0800326
:10395000079354EA05030E973FF43AAC1746FFF776
:10396000C2B80E998DF86F30BBF1000F0C6801F1F1
:1039700004074FF0000580F2A5800E970027FFF79F
:10398000B2B8079BDF060BD4079B5E0608D50E9ADC
:10399000136804320E92BDF82C201A80FEF7A4BFE3
:1039A0000E9A136804320E920B9A1A60FEF79CBFAF
:1039B0000E9A079B13F0400F134603F104030CBF4C
:1039C000146814880E930025FFF702BB0027BB453F
:1039D0008DF86F70FFF60EAC079B23F08003079302
:1039E000FFF7D6BB144601330F9A24932C44072BC0
:1039F000259489E824003FF751AE09F1080958E6FB
:103A000023AA09990A9802F0D5FC00287FF43FA860
:103A1000259C0DF1C0090FE40E9FFFF7E4BB249B2A
:103A2000B54AC9F80020013301340122072B25943F
:103A30002493C9F8042000F38E8009F108092DB9F8
:103A4000129B1BB9079BDF077FF5B8A9249B16992A
:103A5000179AC9F8002001330C44072B2594C9F8A4
:103A60000410249300F3C28109F108096D42002D6E
:103A700040F39B80A14A0F92102D40F3C380224651
:103A80001027DDF828B0099C05E009F10809103D70
:103A9000102D40F3B68001331032072B259224936A
:103AA000C9F800A0C9F80470EFDD23AA21465846E2
:103AB00002F080FC00287EF4EAAF259A249B0DF1E9
:103AC000C009E4E7079AFFF738BA079A90E5079B21
:103AD00043F02003079308F1010898F80030FEF73F
:103AE00036BF23AA09990A9802F064FC00287EF4E4
:103AF000CEAF259C0DF1C009FFF7B6BB40210A9857
:103B000001F038FB099A10601061002800F0E5818F
:103B1000099A40235361FEF7D8BE21A81EA904903C
:103B200003911DA803210290089ACDF804B03B46EA
:103B300000910A9800F0A4FA5D460646119B462BB8
:103B400006EB05047FF4B6AE3378302B00F07C81B1
:103B50001D9D2C44AEE623AA09990A9802F02AFC7E
:103B600000287EF494AF1D9D259C0DF1C00966E7E9
:103B7000BBF1000F08BF4FF0010B67E60E97174629
:103B80005EE53046FEF71CFEA34603460D90FFF7A8
:103B9000F4BA23AA09990A9802F00CFC00287EF4D2
:103BA00076AF259C249B0DF1C0091299C9F80060DD
:103BB00001330C44072B25942493C9F804107FF794
:103BC000FBA811E42D270893109B07938DF86F70C5
:103BD0004FF0000BFFF729B81D9BDD1C1EDB9B453A
:103BE0001CDB139389E6234677E623AA09990A98F2
:103BF00002F0E0FB00287EF44AAF259C0DF1C009DD
:103C000059E4144601330F9A24932C44072B25942E
:103C100089E82400BDDC09F10809C6E7119A023AD7
:103C20001192013B002B9DF844201D93B8BF5B42CD
:103C30008DF87C20B4BF2D222B22092B8DF87D20FE
:103C400040F3F1800DF18B0004462D4A82FB0321E5
:103C5000DA17C2EBA10202EB8201A3EB410303F1ED
:103C60003001092A134604F8011DEEDC21463033E9
:103C7000DAB201F8012D884240F23A810DF17E015D
:103C8000234601E013F8012B01F8012B9842F9D1EA
:103C9000431C1B1B0DF17E0213441FAA9B1A129A90
:103CA0001993012A13440D9340F3EA800D9B169A51
:103CB000134400220D93139223EAE3732BE623AA05
:103CC00009990A9802F076FB00287EF4E0AE1D9B6D
:103CD000259C0DF1C009F6E4062D2B4628BF0623CE
:103CE0000D9323EAE373B3460E9713963746089372
:103CF000044EFEF799BF00BFEC6740009C67400090
:103D000067666666E467400023AA09990A9802F08C
:103D100051FB00287EF4BBAE1D9B129A259CD31A42
:103D20000DF1C009E7E44FF0060B8FE521A81EA9AD
:103D3000049003911DA803210290089ACDF804B0C5
:103D40003B4600910A9800F09BF95D46064600EB61
:103D50000B04F9E60793FFF759B92D278DF86F701B
:103D6000FFF7B2B8169A129B1344139A0D93002AC8
:103D70007EDD672223EAE3731192CCE525EAE57341
:103D80000E9708930D95834613909DF86F70FEF77C
:103D90004BBF079BDB075F4605D540AE302306F8D7
:103DA000413DFEF737BFCDF834B030AEFEF735BF3A
:103DB000002B7DDDBBF1000F3DD1079AD4073AD42B
:103DC0001A460D9223EAE373A5E5119B472B7FF476
:103DD00070AD079BDB073FF5B1AE219B9B1B129398
:103DE0000D9B472B3FF4F8AE1D9B1AE723AA0999B8
:103DF0000A9802F0DFFA00287EF449AE1D9D259C4A
:103E0000249B0DF1C00931E6A0460025FEF7A1BDB7
:103E1000219B62E5169A139B134467220D9311921E
:103E200023EAE37377E5303330228DF87F308DF865
:103E30007E2020AB31E7139B169A9D1805EB0B03F0
:103E40000D9323EAE37366E50898394600220023C0
:103E500002F008FC00287FF47BAEC5F101051D953A
:103E60002C4427E5324E334B9DF86F70FFF72EB888
:103E7000139B0D9AC3F101031A4413460D9278E780
:103E8000079B13F001037FF411AF13930D9B23EAFB
:103E9000E37340E50E9898F8013005680430002D72
:103EA0000E90A046BEF653AD4FF0FF35FEF74FBD66
:103EB000BBF1000F02D1079BD80707D5169B5D1CED
:103EC00005EB0B030D9323EAE37324E501230D9324
:103ED00021E58DF86F10FFF721B90A9A0C231360C2
:103EE0004FF0FF30FEF7DCBD8DF86F10FFF7F9B82B
:103EF0000DF17E03D1E68DF86F10FEF7D9BD8DF878
:103F00006F10FFF757B88DF86F10FFF725B88DF8D1
:103F10006F10FFF74CB98DF86F10FEF7F3BF8DF8F7
:103F20006F10FEF7A3BF8DF86F10FEF733BE00BF12
:103F3000B8674000B4674000024B13B1024800F07C
:103F400005B8704700000000D94E4000002301462C
:103F50001A46184602F0AEBA02690B69934200F3A2
:103F60008D802DE9F04F03F1FF3801F1140700F1C6
:103F7000140B57F828205BF828304FEA880483B0E8
:103F80000132B3FBF2F90BEB0403009407EB040AD4
:103F90000193B9F1000F39D00025BC46DE462B460F
:103FA0005CF8046BDEF80020B4B209FB0455360C53
:103FB0002C0C09FB0644ADB25B1BA6B213FA82F3CC
:103FC000C6EB124606EB23469BB243EA0643E245A4
:103FD0004EF8043B4FEA14454FEA2643E0D2009BDB
:103FE0005BF8033093B9019C231F9B450CD254F816
:103FF000043C4BB9A4F1080302E01A68043B1AB967
:104000009B4508F1FF38F8D3C0F81080044601F052
:10401000C9FE00282EDB09F101095D46002357F88F
:10402000041B28688AB29A1A090C12FA80F2C1EBB2
:10403000104303EB224391B241EA0341BA4545F8EC
:10404000041B4FEA2343EAD25BF828200BEB8803DA
:1040500082B91A1F93450BD253F8042C42B9083B7E
:1040600002E01A68043B1AB99B4508F1FF38F8D3FF
:10407000C4F81080484603B0BDE8F08F00207047B8
:104080002DE9F04F016C97B08146239C92469B46E8
:1040900049B1426C4A60012393408B6001F0A0FC5F
:1040A0000023C9F84030BBF1000FD84633DB0023B2
:1040B0002360A54B1A4608EA0303934214D05046E6
:1040C00059460022002302F0CDFA054648B3229A51
:1040D00001231360249B002B00F0C5809B481860CF
:1040E000013817B0BDE8F08F229A42F20F731360C7
:1040F000BAF1000F00F0A2809548249B002BF0D06D
:10410000C378002B00F0B18000F10803249A1360FB
:1041100017B0BDE8F08F01232BF000482360C346A1
:10412000C7E714AA15AB0192009352465B46484676
:1041300001F0E2FE5FEA1854089040F08880149D78
:10414000159C2C4404F23243202B40F39182C3F19E
:10415000400304F2124008FA03F82AFA00F040EA99
:104160000800FDF771FE0123013CA1F1F8711093E5
:104170000022784BFDF72AFD6DA3D3E90023FDF75C
:10418000D9FE6DA3D3E90023FDF722FD06462046A4
:104190000F46FDF769FE6AA3D3E90023FDF7CAFEC7
:1041A00002460B4630463946FDF712FD06460F46DD
:1041B00002F0A0FA0022049000233046394602F0B3
:1041C0005BFA002840F03082049E162E00F229820D
:1041D000614B03EBC603D3E9000152465B4602F094
:1041E00069FA002800F04982731E049300230C939F
:1041F0002C1B631E029300F1328200230593049B63
:10420000002BC0F22382029A0B931146194400231B
:1042100002910A93209B092B29D8052B40F358863D
:10422000043B20930025209B023B032B00F23586A4
:10423000DFE813F02C03280237035904444B474AA4
:10424000C8F31300002814BF1846104655E7CBF3F7
:10425000130343F07F5110955046A4F2FF3441F40C
:104260004011149D84E73E483BE7C31C4EE7002104
:10427000C9F844104846209101F08CFB4FF0FF3301
:104280000693209A0D93012307902192C9F84000CC
:104290000993159B002BC0F2D180049A0E2A00F3DB
:1042A000CD802D4B03EBC203D3E90034CDE90234BA
:1042B000219B002BC0F2008356465F46504659466C
:1042C000DDE902AB52465B46FDF75EFF02F012FAF3
:1042D0000446FDF7C9FD52465B46FDF72BFE0B4633
:1042E000024639463046FDF771FC079D04F1300364
:1042F0002B70069B012B06460F4605F1010562D087
:104300000022184BFDF716FE0022002306460F463A
:1043100002F0A8F900287ED1CDF81490DDF818A09D
:10432000DDF81CB0DDE9028929E000BFAFF30080B1
:1043300061436F63A787D23FB3C8608B288AC63FAB
:10434000FB799F501344D33F0000F07FED6740009E
:104350000C6840000000F83F206840000068400002
:10436000EC67400000002440FDF7E4FD002200233C
:1043700006460F4602F076F9002840F0B783424621
:104380004B4630463946FDF7FFFE02F0B3F90446CE
:10439000FDF76AFD42464B46FDF7CCFD02460B4653
:1043A00030463946FDF712FC04F1300E05F801EBFA
:1043B000CBEB050ED64506460F464FF00002B04B3C
:1043C000D2D1DDF8149032463B4630463946FDF7EF
:1043D000FFFB06460F4602460B46DDE9020102F0EE
:1043E0004BF940B932463B46DDE9020102F03AF9A9
:1043F00088B1E3070FD515F8014C079A6B1E04E04E
:104400009A4200F02C8413F8014D392C03F1010578
:10441000F6D001341C700899484601F0E1FA0022F8
:10442000049B2A70229A01331360249B002B00F016
:10443000A78307981D6017B0BDE8F08F099A002A7E
:1044400000F01281209A012A40F35882069B0A9AB2
:104450005F1EBA42C0F29783D71B069B002BC0F2A7
:104460008A84059D069B059A1A440592029A0121A9
:104470001A444846029201F04BFB064665B1029988
:1044800000290B4608DDA942059AA8BF2B46D21A7F
:10449000ED1ACB1A059202930A9B002B40F3FC8283
:1044A000099A002A00F00182002F00F0FE813146B7
:1044B0003A46484601F0CEFBDDF8208001464246F0
:1044C0000646484601F02EFB41460446484601F0A8
:1044D00087FA0A9BDB1B0A9340F0E68101214846DC
:1044E00001F016FB0B9B8046002B00F01982014661
:1044F0001A46484601F0AEFB209B012B804640F354
:10450000F8820027D8F8103008EB8303186901F00F
:10451000B1FAC0F12000029A104410F01F0000F020
:10452000F681C0F12003042B40F3CA84059BC0F13F
:104530001C00034405931346034405440293059B62
:10454000002B05DD21461A46484601F0D3FB044600
:10455000029B002B05DD41461A46484601F0CAFB86
:1045600080460C9B002B40F07C82069B002B40F386
:104570009582099B002B40F0F581DDF81CB0069F69
:104580005D4602E001F036FA044641462046FFF758
:10459000E3FC00F1300A05F801ABCBEB0503BB42AD
:1045A0004FF00A024FF0000321464846EADB079B22
:1045B000069A012AACBF9B1801331D464FF0000B31
:1045C00021460122484601F095FB4146089001F042
:1045D000E9FB002840F30D8315F8012C07996B1EA9
:1045E00004E08B4200F0788213F8012D392A03F1A0
:1045F0000105F6D001321A704146484601F0F0F943
:10460000002E3FF408AFBBF1000F05D0B34503D037
:104610005946484601F0E4F93146484601F0E0F9D0
:10462000F9E601230C93E3E5DDF810804046FDF741
:104630001BFC02460B463046394602F013F80028B0
:104640007FF4C2AD08F1FF330493BDE5059A049BE6
:10465000D21A5B420A93002305920B93DAE55B4280
:10466000059300230293CAE50A9F059D099E05E76D
:10467000C3F120080AFA08F073E50C90B8E500BF12
:104680000000244000230993049B219A13440D93B6
:104690000133002B069340F38382069C26460021BB
:1046A000172EC9F844100BD9012204235B0003F133
:1046B0001400B042114602F10102F7D9C9F84410C2
:1046C000484601F067F90E2C0790C9F840003FF604
:1046D000E0AD002D3FF4DDAD04995746D8460029E2
:1046E000CDE90E7840F39282914B01F00F020E114A
:1046F00003EBC203F006D3E9004540F14C828D4B39
:1047000050465946D3E90823FDF73EFD06F00F0653
:1047100082468B464FF0030886B1864FF10709D5D4
:1047200020462946D7E90023FDF704FC08F10108DB
:1047300004460D46761007F10807EFD122462B46B6
:1047400050465946FDF720FD06460F460C9B43B1E7
:104750000022794B3046394601F08EFF002840F0A8
:1047600020834046FDF780FB32463B46FDF7E2FBE7
:10477000724B0022FDF72CFA069B0446A1F15075FE
:10478000002B00F0DF81049BDDF818801193099B5A
:10479000002B00F09782664B694903EBC80353E98D
:1047A00002230020FDF7F0FC22462B46FDF70EFA0F
:1047B00082468B463046394601F09CFF0446FDF7A1
:1047C00053FB02460B4630463946FDF7FFF93034BD
:1047D000079DE4B206460F462C7002460B46504633
:1047E0005946013501F066FF00284CD132463B4660
:1047F00000205149FDF7EAF902460B46504659465A
:1048000001F058FF002840F00D83B8F1010F40F38C
:10481000B381079B98440DE000204749FDF7D6F986
:1048200052465B4601F028FF002840F0FB824545D8
:1048300000F0A281504659460022424BFDF77AFB18
:104840000022404B82468B4630463946FDF772FBCC
:104850000F46064601F04EFF0446FDF705FB0246F3
:104860000B4630463946FDF7B1F93034E4B25246D2
:104870005B4605F8014B06460F4601F0FDFE324649
:104880003B460028C8D0119B0493C4E5002309933C
:10489000219B002B40F389811E461C460D930693F5
:1048A000FDE601230993F3E708940A9A089948461C
:1048B00001F0D0F9044611E6069B002B3FF7FCAC53
:1048C00040F0DA820022204BDDE90201FDF732FBE5
:1048D00052465B4601F0E4FEDDF8188046460028AB
:1048E00000F0F280219B079DDB430493414648463C
:1048F00001F076F8002E3FF48EAD8DE6109A002A76
:1049000000F0418203F233430A9F059DABE51C2072
:10491000059B03440593029B0344054402930EE662
:10492000209B012B40F382820B9F0120F3E500BF07
:1049300020684000E86840000000F03F00001C4094
:104940000000E03F000024400000144031460023F6
:104950000A22484601F04EF80D9B002B064640F314
:1049600097820693002D05DD31462A46484601F020
:10497000C1F90646002F40F07C810596069B079AF8
:10498000DDF814B0013BD31808930AF00103099332
:104990001746C24651462046FFF7DEFA3146054625
:1049A000204601F0FFF95A4602905146484601F070
:1049B00019FAC268804605F13003002A49D1014640
:1049C0002046069301F0EEF941460590484601F075
:1049D00007F8059A069B2AB9209919B9099900295F
:1049E00000F0368202990029C0F2E48005D12099B6
:1049F00019B90999002900F0DD80002A00F34D81E2
:104A0000089A3B7007F101089742454600F054812F
:104A1000214600230A22484600F0ECFF5E4504468A
:104A200031464FF000034FF00A0248460BD000F029
:104A3000E1FF5946064600230A22484600F0DAFF05
:104A400047468346A6E700F0D5FF4746064683461D
:104A5000A0E701464846059300F0C2FF0122059BEE
:104A6000C0E74146204601F09DF90028BFF67DAD24
:104A70002146049C0023013C0A224846049400F08D
:104A8000B9FF099B0446002B7FF460AF0D9B002B00
:104A900040F3F681069370E5089C1FE5209B022BEE
:104AA0007FF767AD069B002B40F0798141460522D8
:104AB000484600F09FFF01468046204601F072F90B
:104AC000002808947FF70EAF049A0799312301322A
:104AD00004920B704D1C09E7049A01320492079A64
:104AE0003123137088E501230993CDE5DDF8149097
:104AF00091E4BAF1000F7FF404ADCBF31303002B64
:104B000040F03F812BF000473F0D3F0537B1059B3B
:104B100001330593029B0133029301270B9B012074
:104B2000002B3FF4F8ACEDE44046FDF79DF932462A
:104B30003B46FDF7FFF90022BF4BFDF749F804465D
:104B4000A1F15075304639460022BC4BFDF73EF8C6
:104B500022462B4606460F4601F0ACFD8046002853
:104B600040F00581224605F100433046394601F008
:104B700083FD08B14646B5E6DDE90EABFFF789BB1C
:104B80000798FFF7AEBA0A9B0B9A0A97FB1A1A44CA
:104B90000B92002761E4DDE90EAB4FF00208BBE5A4
:104BA0001C460021C9F844108AE5012421940D9483
:104BB0000694F6E7002AD046CDF814B09A4611DDE7
:104BC00021460122484601F095F84146044601F08D
:104BD000E9F8002840F34981BAF1390F00F0068165
:104BE00005F1310AB34687F800A07D1C059E0894A4
:104BF00002E504D11AF0010F01D0EDE4154615F8D5
:104C0000013C302B05F1FF32F8D0F5E4049B5C4207
:104C1000002C00F0BF808A4B04F00F0203EBC203AC
:104C2000D3E90023DDE90E01FDF784F924110646DE
:104C30000F4600F02A81834D4FF00208E20709D5A4
:104C400030463946D5E90023FDF774F908F101082B
:104C500006460F46641005F10805EFD176E5079981
:104C600030220A70049A15F8014C01320492FFF7C1
:104C7000D0BB7168484600F08DFE33699A1C05462A
:104C8000920006F10C010C3000F082FD2946012251
:104C9000484601F02FF8059070E6392BCDF814B096
:104CA000D04600F0A38003F1010AB34687F800A0C4
:104CB0007D1C059E08949FE45A46D046B3469A460A
:104CC00016467DE45E4908F1FF3A01EBCA0122462F
:104CD0002B46D1E90001FDF72DF9CDE91201394646
:104CE000304601F007FD0446FDF7BEF802460B46CC
:104CF00030463946FCF76AFF079A3034B8F1010FA5
:104D000006460F46147002F101051ED0079B03EB07
:104D1000080BA84600224C4B30463946FDF70AF9ED
:104D20000F46064601F0E6FC0446FDF79DF83034D8
:104D300002460B4630463946FCF748FF08F8014B5F
:104D4000C34506460F46E5D1554400223F4BDDE9F9
:104D50001201FCF73DFF32463B4601F08DFC002876
:104D60004CD0119B049315F8014CFFF746BB4FF054
:104D700000084646A8E6059B069A9D1A0023FFF701
:104D800072BB0027CAE6149B0A9F059DC3F1360338
:104D9000FFF769BBDDE90E674FF00208D6E408941F
:104DA000A0E5069B002B3FF4BFAE0D9B002B7FF7C9
:104DB000E3AE0022244B30463946FDF7BBF80646E9
:104DC0000F4608F10100FDF74FF832463B46FDF76C
:104DD000B1F80022184BFCF7FBFE049ADDF8348092
:104DE000013A0446A1F150751192D0E43922B3463C
:104DF0000894059E3A707D1CFFF7F0BBDDE9122395
:104E000000201249FCF7E2FE32463B4601F052FC1C
:104E100008B9B1E6154615F8013C302B05F1FF3213
:104E2000F8D030E5119B0493FFF7E7BABAF1000F11
:104E30007FF47AAD61E600BF00001C400000144022
:104E400020684000E8684000000024400000E03F87
:104E5000392BCDF814B0D046DDF808B09A46C5D04D
:104E6000BBF1000F3FF7BCAEBCE67FF4BBAE1AF05F
:104E7000010F3FF4B7AEAFE64FF00008464631E50C
:104E8000209B022B21DC0D9B04E64FF002085DE421
:104E9000209B022B19DC0D9B63E50024C9F84440DC
:104EA0002146484600F076FD4FF0FF3306930D9300
:104EB000012307902194C9F840000993FFF7E9B94D
:104EC0003FF43DABC0F13C0022E50D9B0693E9E5C4
:104ED0000125FFF7A8B900BF38B5074D074C2C1BBB
:104EE000A41005D0013C55F8043D9847002CF9D199
:104EF000BDE8384001F01CBD406940003C694000FD
:104F0000F8B5234F0C46064600F040FDBB685D68CF
:104F100025F00305291B01F6EF7121F47F6121F0D3
:104F20000F01A1F58054B4F5805F07DB0021304606
:104F300001F02EFABB682B44984204D0304600F0B2
:104F400027FD0020F8BD6142304601F021FA013012
:104F50000DD0104BBA6819682D1B45F0010530467D
:104F6000091B5560196000F013FD0120F8BD0021F8
:104F7000304601F00DFABA68831A0F2BDEDD064CBD
:104F80000449246843F00103001B53600860D5E71F
:104F90007C080020600D0020880C0020002945D0EE
:104FA0002DE9F0410D46804600F0F0FC55F8047CF8
:104FB0006A4927F00103A5F10804E2188E685068D9
:104FC000B24220F0030062D0FE0750600BD455F8C7
:104FD000087CE41B01F1080EA56875453B446FD0C1
:104FE000E768EF60BD6015186D68ED0742D543F0C6
:104FF00001026260E350B3F5007F18D2DB085A1C4F
:105000004D6851F83270A76001209B1000FA03F33D
:1050100001EBC2001D430838E0604D6041F83240AA
:10502000FC604046BDE8F04100F0B2BC70475A0A4F
:10503000042A53D89A0902F139077F0002F1380592
:1050400001EB870051F827204449083890424DD0A1
:10505000516821F003018B4202D292689042F7D14D
:10506000D068E060A2608460D4604046BDE8F04152
:1050700000F08EBC95683A4FBD4203443FD0D068E3
:10508000E86043F0010285606260E350B3E7FF0728
:10509000034407D455F8082CA41A1344A068E26806
:1050A000C26090602F4A126843F001009342606032
:1050B0008C60B6D32C4B40461968FFF721FFB0E750
:1050C00011184968C90744D49168D268CA6003447A
:1050D00043F0010091606060E350A2E7142A17D802
:1050E00002F15C077F0002F15B05A9E7AA104B689B
:1050F000012505FA02F213434B600246B1E743F083
:1051000001024C610C61E560A5606260E35088E7D4
:10511000542A06D81A0B02F16F077F0002F16E05C0
:105120008EE7B2F5AA7F06D8DA0B02F178077F0086
:1051300002F1770584E740F25450824206D89A0C77
:1051400002F17D077F0002F17C0579E7FE277E25CD
:1051500076E743F001026260E35062E77C080020DA
:1051600084080020840C00205C0D0020004870475B
:10517000440800202DE9F04F01F10B05162D83B0F6
:10518000064640F29F8035F0070500F1BF80A94236
:1051900000F2BC8000F0FAFBB5F5FC7FC0F09C8209
:1051A0006B0A00F0BA80042B00F28381A80900F199
:1051B000390E4FEA4E033830C44F07EB8303A3F197
:1051C00008015C68A14207D1ACE0002A80F2AC8003
:1051D000E468A14200F0A680636823F003035A1B31
:1051E0000F2AF2DDB9493C6901F1080E744500F05F
:1051F000B381636823F003035A1B0F2A00F39981DC
:10520000002AC1F814E0C1F810E080F29E80B3F5E6
:10521000007F80F06781DB0803F1010C01229B1005
:1052200002FA03F34A6851F83C80C4F8088001EBA5
:10523000CC091A43A9F10803E3604A6041F83C40F5
:10524000C8F80C40831001249C40944200F28A80EC
:10525000144206D120F003006400144200F104005F
:10526000FAD007EBC009CC468046DCF80C108C4520
:1052700007D173E1002A80F28181C9688C4500F072
:105280006D814B6823F003035A1B0F2AF2DD0C4695
:10529000D1F80CC054F8088F4B1945F001054D604A
:1052A00042F00101C8F80CC03046CCF808807B61A0
:1052B0003B61C3F80CE0C3F808E059609A5000F075
:1052C00067FB1FE0102921D800F060FB10250623A2
:1052D00002207E4F07EB8303A3F108025C6894422F
:1052E00000F045816368E168A56823F00303234467
:1052F00030465A68E96042F001028D605A6000F061
:1053000047FB0834204603B0BDE8F08F00240C238F
:105310002046336003B0BDE8F08F80234FF0400E8D
:105320003F2049E770465DE72344E1685A68A56875
:1053300042F00102E96030468D605A6000F028FBBF
:105340000834204603B0BDE8F08F234430465A6845
:1053500042F001025A6000F01BFB0834204603B003
:10536000BDE8F08FBC68636823F00308A84504D348
:10537000C5EB08030F2B00F38C80554BDFF86091D1
:105380001A68D9F8003001332A4404EB080A00F007
:10539000608102F580520F3222F47F6222F00F0208
:1053A00011463046019200F0F3FFB0F1FF3F834613
:1053B000019A00F05881824500F2FC80454B196843
:1053C000DA451144196000F05381D9F80000DFF884
:1053D00010E101301BBFCAEB0B0A5144CEF800B0FC
:1053E00019601BF0070100F01781C1F10800C1F539
:1053F0008051834408315A44C2F30B02C2EB0109C5
:1054000049463046019300F0C3FF431C019B00F066
:105410003F81CBEB00024A4442F001021968C7F811
:1054200008B04944BC42CBF804201960DFF8A490CE
:1054300016D0B8F10F0F40F2FD806268A8F10C039E
:1054400023F00703E01802F001024FF0050E1A43A3
:105450000F2B6260C0F804E0C0F808E000F21C8185
:105460001D4BBC681A68914288BF19601B4B1A68B3
:105470009142626888BF196022F003029542A2EB54
:10548000050301D80F2B04DC304600F081FA00241C
:1054900038E7621943F0010345F0010565603046C5
:1054A000BA60536000F074FA0834204603B0BDE8D7
:1054B000F08F142B71D9542B00F2A480280B00F12B
:1054C0006F0E4FEA4E036E3076E600BF7C08002078
:1054D0005C0D0020600D0020580D0020540D0020B0
:1054E000880C00205A0A042A5ED9142A00F2B380DC
:1054F00002F15C0149005B3207EB810C57F8211087
:10550000DFF8DC81ACF1080C8C4500F088804A683B
:1055100022F00302934202D289688C45F7D1D1F878
:105520000CC07A68C4F80CC0A160CCF80840CC600C
:1055300088E6631942F0010745F0010565603046D1
:105540004B610B61C3F80CE0C3F808E05F609A5050
:10555000083400F01DFAD5E64A6873E608F1010840
:1055600018F0030F0CF1080C7FF47FAE30E0DC681C
:10557000A34208BF02303FF435AEB3E60B440C46FD
:105580005A68C96854F8085F42F001025A60304610
:10559000E9608D6000F0FCF9B4E603F15C0E03F104
:1055A0005B004FEA4E0307E69A0902F13901490010
:1055B0003832A1E7BC424A4B3FF400AF9C686268B6
:1055C00022F003025AE759F80839994540F08280E1
:1055D00010F0030F00F1FF30F5D17B6823EA0403DC
:1055E0007B6064009C423FF6BDAE002C3FF4BAAE37
:1055F0001C4240467FF435AE64001C4200F10400BA
:10560000FAD02EE6B3F5AA7F18D8E80B00F1780E91
:105610004FEA4E037730CFE54FF48051EBE601219E
:10562000D8F80430921001FA02F21A43C8F80420A4
:10563000614677E70123CBF8043025E740F2545266
:10564000934220D8A80C00F17D0E4FEA4E037C3027
:10565000B2E51032A4E6542A26D81A0B02F16F01E3
:1056600049006E3248E7BC68626822F0030205E731
:10567000CAF30B0000287FF4A8AE4244BB6842F096
:1056800001025A60ECE6FE234FF07F0E7E2093E588
:1056900001224FF00009C1E604F108013046FFF78E
:1056A0007DFCD9F80010DBE6B2F5AA7F05D8DA0B4D
:1056B00002F17801490077321EE740F254518A42E4
:1056C00005D89A0C02F17D0149007C3214E7FE21D5
:1056D0007E2211E77B6884E7E808431C5B00F8E55D
:1056E0007C08002000000000000000000000000016
:1056F00001F0FF01102A2BDB10F0070F08D010F883
:10570000013B013A8B422DD010F0070F42B3F6D186
:10571000F0B441EA012141EA014122F007047FF09F
:1057200000070023F0E80256083C85EA010586EAF6
:10573000010685FA47F5A3FA87F586FA47F6A5FA32
:1057400087F68EB9EED1F0BC01F0FF0102F007023E
:1057500032B110F8013B013A83EA010313B1F8D1E9
:105760000020704701387047002D06BF35460338CA
:10577000073815F0010F07D1013015F4807F02BF03
:10578000013015F4C03F0130F0BC0138704700BF54
:10579000844641EA000313F003036DD1403A41D33C
:1057A00051F8043B40F8043B51F8043B40F8043BFB
:1057B00051F8043B40F8043B51F8043B40F8043BEB
:1057C00051F8043B40F8043B51F8043B40F8043BDB
:1057D00051F8043B40F8043B51F8043B40F8043BCB
:1057E00051F8043B40F8043B51F8043B40F8043BBB
:1057F00051F8043B40F8043B51F8043B40F8043BAB
:1058000051F8043B40F8043B51F8043B40F8043B9A
:1058100051F8043B40F8043B51F8043B40F8043B8A
:10582000403ABDD2303211D351F8043B40F8043B2A
:1058300051F8043B40F8043B51F8043B40F8043B6A
:1058400051F8043B40F8043B103AEDD20C3205D33A
:1058500051F8043B40F8043B043AF9D2043208D032
:10586000D2071CBF11F8013B00F8013B01D30B88A4
:1058700003806046704700BF082A13D38B078DD082
:1058800010F003038AD0C3F10403D21ADB071CBF54
:1058900011F8013B00F8013B80D331F8023B20F8BE
:1058A000023B7BE7043AD9D3013A11F8013B00F8F7
:1058B000013BF9D20B7803704B7843708B7883707F
:1058C000604670478842F0B50DD98B1898420AD2CD
:1058D0008118002A51D09A1A13F8014D01F8014D90
:1058E0009342F9D1F0BD0F2A48D941EA00039B0742
:1058F00046D100F1100401F11003154653F8106C65
:1059000044F8106C53F80C6C44F80C6C53F8086CA9
:1059100044F8086C103D53F8046C44F8046C0F2DE7
:1059200003F1100304F11004E8D8A2F1100323F0EE
:105930000F0302F00F0E1033BEF1030F194403449E
:1059400021D91E1F0D467446043C55F8047B46F8C9
:10595000047F032CF8D8AEF1040424F003040434CB
:105960002344214402F0030262B1013B0A4411F8CE
:10597000014B03F8014F8A42F9D1F0BD0346F3E72A
:105980000346F2E7F0BD7246EEE700BF704700BF86
:10599000704700BFC36C70B505460C464BB153F859
:1059A000240080B1026843F8242000230361C3600F
:1059B00070BD2122042100F0CFFDE86403460028D9
:1059C000EDD1002070BD012101FA04F6721D2846B8
:1059D000920000F0C1FD0028F3D044608660E4E747
:1059E00031B1C36C4A6853F82200086043F82210B2
:1059F000704700BFF0B50C6983B00D46064601F153
:105A0000140E0027DEF8000081B202FB01310B0CFE
:105A1000000C02FB003389B2013701EB0341BC42A9
:105A20004EF8041B4FEA1343ECDC3BB1AA689442E6
:105A300007DA05EB8402013453612C61284603B078
:105A4000F0BD6968019301313046FFF7A3FF2A6971
:105A5000023205F10C01074692000C30FFF798FE68
:105A6000F26C6968019B52F82100286042F82150CD
:105A70003D46DEE7030C1B04B3B90004102310F00D
:105A80007F4F04BF0002083310F0704F04BF0001C5
:105A9000043310F0404F04BF80000233002807DBBE
:105AA000420003D4202070470023E8E7581C7047C9
:105AB00018467047036813F0070207D0D90720D4AF
:105AC0009A0720D49B0803600220704799B209B955
:105AD0001B0C102213F0FF0F04BF1B0A083219071A
